:020000040800F2
:1000000080230020010100084F290008CB1F0008B1
:100010004D290008EF07000807380008000000001D
:100020000000000000000000000000004D34000847
:10003000610B00080000000005340008FD340008D2
:100040001B0100081B0100081B0100081B01000820
:100050001B0100081B0100081B0100081B01000810
:100060001B010008ED0B00081B0100081B01000824
:100070001B0100081B0100081B0100081B010008F0
:100080001B0100081B0100081B0100081B010008E0
:100090001B0100081B0100081B0100081B010008D0
:1000A0001B0100081B0100081B0100081B010008C0
:1000B0001B010008BD350008C93500081B010008F8
:1000C0001B0100081B0100081B0100081B010008A0
:1000D0001B0100081B0100081B0100081B01000890
:1000E0001B0100081B0100081B010008DFF80CD0F1
:1000F00000F08CFA00480047E954000880230020F3
:100100000648804706480047FEE7FEE7FEE7FEE7B1
:10011000FEE7FEE7FEE7FEE7FEE7FEE775350008CF
:10012000ED000008202A04DB203A21FA02F0002129
:10013000704721FA02F3D040C2F1200291400843F7
:10014000194670470649074A0868504343F2390286
:10015000104408604008704701490860704700007B
:10016000A80100206D4EC64140EA01039B0703D061
:1001700009E008C9121F08C0042AFAD203E011F8E6
:10018000013B00F8013B521EF9D27047D2B201E0A8
:1001900000F8012B491EFBD270470022F6E710B58C
:1001A00013460A4604461946FFF7F0FF204610BDE5
:1001B0002DE9FE4F804681EA0300C00F0C460090F7
:1001C00021F0004123F00045B8EB0200A94105D21F
:1001D0004046214690461C460B46024623F000400E
:1001E000104347D0270DC7F30A00C3F30A5102900A
:1001F000401A019040286BDAC3F3130040F4801BCF
:100200000098924620B10023D2EB030A63EB0B0B5C
:1002100001985946C0F14002504600F041F90646A7
:100220000D4650465946019A00F049F910EB080076
:100230006141002487EA115284EAE7731A4340D0EF
:10024000009A62B3019A012A4FEA075215DC001B9B
:1002500061EB02014FF0004202EA0752CDE9004291
:10026000001C41F5801132462B4600F080F903B0A6
:10027000BDE8F08F40462146F9E7001B61EB020123
:10028000001C41F5801300185B412018A2F50017EF
:1002900047EB030140EAD570B6196D4111E06D08D6
:1002A0004FEA360645EAC0754FEA0752001B61EB7C
:1002B0000201001C41F5801149084FEA3000001985
:1002C000514132462B4603B0BDE8F04F00F040B933
:1002D0000098012240000023D0EB020263EBE073A0
:1002E000009821464FEAE074B8EB000061EB04018E
:1002F000E9E783F000435BE781F0004158E72DE92F
:10030000FE4F81EA030404F0004421F00041009410
:100310004FF0000B23F0004350EA01045ED052EA94
:1003200003045BD0C3F30A54C1F30A552C44A4F26E
:10033000F3340194A0FB0254C1F3130141F4801182
:10034000C3F3130343F4801301FB024400FB034E89
:10035000840A970A44EA815447EA8357A4FB076852
:1003600002958D0A05FB07854FEA932C04FB0C547C
:100370002705029D4FEA065847EA1637B5EB0805F0
:100380006EEB070C870E920E47EA811742EA831242
:10039000A7FB0201B6EB0B0164EB00042B0D43EA53
:1003A0000C335E1844EB1C50DA465146E7FB020161
:1003B000C5F313044FEA0B3343EA14534FEA0432F4
:1003C000019C43EA0603A4F10C040294009CCDE9CD
:1003D00000B400F0CCF803B0BDE8F08F0020014677
:1003E000F9E70EB5C10F80EAE0700844CA070021A2
:1003F00040F233438DE80E000A460B4600F0B7F892
:1004000003B000BD70B5C1F30A5201F000450024ED
:10041000C1F3130140F2FF3341F480119A4201DA33
:10042000002070BD40F233439A42A2F2334203DC13
:100430005242FFF777FE00E090402C43F1D040425B
:1004400070BD00F0004230F000400AD0C10D01F54F
:100450006071C0F3160042EA0151C208400711431F
:10046000704700200146704701F0004330B421F08E
:10047000004150EA010206D00A0DA2F56072C1F3F4
:100480001301002A02DC30BC00207047440F44EA0C
:10049000C104C100E01830BC00EBC25000F021B82C
:1004A000202A04DB203A00FA02F100207047914034
:1004B000C2F1200320FA03F3194390407047202A29
:1004C00006DBCB17203A41FA02F043EAE07306E07C
:1004D00041FA02F3D040C2F120029140084319468C
:1004E00070470029A8BF7047401C490008BF20F092
:1004F0000100704710B4B0FA80FC00FA0CF050EA2A
:10050000010404BF10BC704749B1CCF1200421FAAA
:1005100004F411FA0CF118BF012121430843A3EBA5
:100520000C01CB1D4FEA00614FEA102042BF0020B2
:1005300010BC704700EBC35010440029A4BF10BC8E
:100540007047401C490008BF20F0010010BC7047F4
:1005500010B5141E73F1000408DA401C41F10001CB
:1005600092185B411A4301D120F0010010BD2DE922
:10057000F04D92469B4611B1B1FA81F202E0B0FA19
:1005800080F220329046FFF78BFF04460F4640EA88
:100590000A0041EA0B0153465A46084313D011465C
:1005A00053EA010019D0C8F140025046FFF7BAFDE6
:1005B00005460E46504659464246FFF771FF08432E
:1005C00005D0012004E020463946BDE8F08D00202A
:1005D000054346EAE0762C4337430A986305E40A6C
:1005E000A0EB08000022FD0A44EA47540A3002D575
:1005F00000200146E9E7010510196941DDE90845D8
:1006000000196941BDE8F04DA2E70000064C074D16
:1006100006E0E06840F0010394E8070098471034D2
:10062000AC42F6D3FFF766FDC8C90008E8C9000868
:100630002DE9F04D81EA030404F0004B21F0004560
:1006400014464FF0000A23F0004150EA050220D082
:1006500054EA01021DD0C5F30A570246C5F313033D
:10066000C1F31300C1F30A5640F4801543F480131C
:10067000A7EB0608101BD64608F2FD3873EB050001
:1006800002D308F1010801E092185B41B8F1000FB4
:1006900003DA00200146BDE8F08D00204FF4801100
:1006A000064684460EE0171B73EB050705D3121BA5
:1006B00063EB050306434CEA010C49084FEA30009E
:1006C00092185B4150EA0107EDD152EA030012D0C3
:1006D00082EA040083EA0501084305D0101BAB4100
:1006E00006D20122002306E000224FF0004302E080
:1006F0006FF0010253101AEB06004CEB085110EB9F
:100700000A0041EB0B01BDE8F04DFFF721BF70B5CA
:1007100021F0004303430CD0C1F30A550024D5EB6C
:10072000040564EB0403D617AD1AB34102DB0020C5
:10073000014670BD201841EB025170BD0EB540F26C
:10074000334102910021CDE900110A460B46FFF723
:100750000EFF03B000BD70B58C1810F8015B15F0EA
:10076000070301D110F8013B2A1106D110F8012B23
:1007700003E010F8016B01F8016B5B1EF9D12B0748
:1007800005D40023521E0DD401F8013BFAE710F8FE
:10079000013BCB1A921C03E013F8015B01F8015BEB
:1007A000521EF9D5A142D8D3002070BD10B508491A
:1007B000084B00200A5C02F00F04120902EB8202CF
:1007C00004EB42021A54401CC0B20728F2D310BDF9
:1007D000DC020020380000200A21B0FBF1F201FB0E
:1007E0001202B0FBF1F042EA0010C0B27047FEE71F
:1007F0002DE9FF4F83B01C461046FFF7F2FDDFF8EE
:10080000D491DFF8D4B14A465B46FFF778FD002269
:10081000724BFFF774FDFFF727FEFFF712FE8A46C3
:10082000054605F06BFC6E4F00223B46FFF767FD67
:10083000DFF8B08100224346FFF7BAFCFFF714FE51
:1008400006462846514604F05BFB00223B46FFF774
:1008500056FD00224346FFF74FFDFFF705FEFFF769
:10086000F0FDDFF884A100225346FFF7A1FCFFF75B
:10087000C9FD05463046FFF7E4FD00225346FFF769
:1008800097FCFFF7BFFD0246A079237AE1798DE856
:100890000B000F212B46084602F0C2FC0498FFF71C
:1008A000A0FD4A465B46FFF72AFD00224B4BFFF7AF
:1008B00026FDFFF7D9FDFFF7C4FD0546009105F0C1
:1008C0001DFC4A4F00223B46FFF719FD002243461C
:1008D000FFF76EFCFFF7C8FD06462846009904F0B6
:1008E0000FFB00223B46FFF70AFD00224346FFF7BD
:1008F00003FDFFF7B9FDFFF7A4FD00225346FFF704
:1009000057FCFFF77FFD05463046FFF79AFD0022B2
:100910005346FFF74DFCFFF775FD0246E07863791B
:1009200021798DE80B000F212B46084602F078FC58
:1009300004983C2190FBF1F103980844FFF751FD26
:100940004A465B46FFF7DBFC0022294BFFF7D7FC4A
:10095000FFF78AFDFFF775FD0E46054605F0CEFB55
:1009600000221E4BFFF7CBFC00224346FFF720FC82
:10097000FFF77AFD07462846314604F0C1FA002207
:10098000164BFFF7BCFC00224346FFF7B5FCFFF710
:100990006BFDFFF756FD00225346FFF709FCFFF7FA
:1009A00031FD05463846FFF74CFD00225346FFF760
:1009B000FFFBFFF727FD02462078A37861788DE8DA
:1009C0000B000F212B46084602F02AFC07B0BDE8B9
:1009D000F08F00005F40D42247DF913F00001840B5
:1009E00000002C4000002E400000E03F00002440AA
:1009F00000003E4008B504480023202100901A461C
:100A0000084602F07FF808BD5392000830B593B055
:100A1000504C062000F0A6F8012855D001210620F0
:100A200000F0A6F81F20002120706170A170E17015
:100A300020716171A171E17120726172A072E07226
:100A400020736073A173E07321746074A074E07408
:100A500020756075A175E1750725601910F8071CF0
:100A6000284600F085F86D1C1F2DF6DB002128209C
:100A700000F07EF80021292000F07AF864212A2075
:100A800000F076F800212B2000F072F81F212C20B6
:100A900000F06EF800212D2000F06AF800212E20D1
:100AA00000F066F816212F2000F062F801213020B6
:100AB00000F05EF8482228496846FFF755FB684673
:100AC00001F05CFF02F0CCFC0725284600F04AF854
:100AD00061196D1C01F8070C1F2DF6DB282000F0B2
:100AE00041F81E4D6870292000F03CF8A8702A20BB
:100AF00000F038F802F09EFC0024204602F0DAFCF8
:100B0000C1B2204602F0F4FC641C802CF5DB2B20E3
:100B100000F028F8114C133420702C2000F022F83B
:100B200060702D2000F01EF8A0702E2000F01AF842
:100B300068732F2000F016F8E872302000F012F8E9
:100B40002873A2786178207813B0BDE8304002F0B5
:100B5000BFBC0000C402002080C9000800000020C3
:100B600070470000014931F81000704700FC01088F
:100B7000F0B599B00F46064664216846FFF70DFBB5
:100B800000226C461046FFF7EDFF24F81200521CBD
:100B9000322AF7DB134D284600F02CF800F08EF8CF
:100BA00011490020BBB200BF0F6905EB400247F0BE
:100BB00001070F61CF68FF07FCD1B04201D113805C
:100BC00002E034F810701780CA68D207FCD10A69B5
:100BD00022F001020A61401C3228E5DB00F064F8D3
:100BE00019B0F0BD00FC010800200240082000F010
:100BF0007FB8000010B5044600F060F80D49C868E1
:100C0000C007FCD1086940F0020008614C61086926
:100C100040F040000861C868C007FCD1086920F0B6
:100C200001000861086920F002000861BDE8104079
:100C300000F03AB80020024000F036B800F03EB8AC
:100C4000014931F8100070476E1F0020014880787C
:100C500070470000900100200148008A80B2704770
:100C6000400000200249002208780A707047000006
:100C7000900100200249486100208861704700000F
:100C80004000002070B5044600F026F90546601CBF
:100C900002D004480078044400F01EF9401BA04232
:100CA000FAD370BD980100200348016941F080012A
:100CB000016100207047000000200240064900202A
:100CC0000A69120607D5054A4A60054A4A60096959
:100CD000090600D501207047002002402301674526
:100CE000AB89EFCD082801D101F040BB704700006F
:100CF000044910B50A68024202D00860FFF7F2FF0B
:100D000010BD0000140401402DE9F84FDFF890A158
:100D100000220AF1040B144601274FF00F090BF1D2
:100D2000040E00BF0B6807FA04F52B40AB4274D1E8
:100D3000DFF870C14E68A6EB0C0866452BD00DDCC1
:100D4000032E34D005DC36B3012E19D0022E2FD15C
:100D50001BE0112E16D0122E2AD119E0B8F5881FEB
:100D600019D006DCB8F5803F15D0B8F5801F1FD12B
:100D700011E0B8F5001F0ED0B8F5041F18D10AE035
:100D8000CA6815E0CA68121D12E0CA6808320FE08E
:100D9000CA680C320CE08A682AB1012A4FF00802B6
:100DA00003D0456104E0042202E0056100E0002276
:100DB000FF2B01D8064601E000F104064FEA840546
:100DC00001D9A5F12005D6F800C009FA05F82CEAEA
:100DD000080C02FA05F54CEA050CC6F800C04D688F
:100DE000ED0057D5304DAE6946F00106AE61AD69F4
:100DF00024F0030605F0010500952C4D06EB050CCB
:100E0000DCF80850A6074FEA167809FA08F6B54349
:100E1000274EB04202D1002610E03BE0254EB04202
:100E200001D101260AE0244EB04201D1022605E09C
:100E3000224EB04201D1032600E0042606FA08F64D
:100E40002E43CCF808604D68DAF80060ED03554693
:100E500001D51E4300E09E432E604D68DBF8006024
:100E6000AD035D4601D51E4300E09E432E604D68F4
:100E7000DEF80060ED02754601D51E4300E09E439A
:100E80002E604D68AD020E4D2E6801D51E4300E068
:100E90009E432E60641C102CFFF444AFBDE8F88F15
:100EA0000004014000001110001002400000014049
:100EB00000080140000C01400010014000140140F6
:100EC0000C0401408068084000D0012070470AB13E
:100ED000016170470904FBE7014880687047000022
:100EE0009801002070B504001BD094F83D00002547
:100EF00020B984F83C50204600F042FA242084F8BF
:100F00003D002068016821F00101016000F0CCFB88
:100F1000404A6168914201D83F4900E03F49884218
:100F200001D2012070BD3E492368B0FBF1F1596048
:100F30006368934206D94FF4967359434FF47A731A
:100F4000B1FBF3F12368491C19626168914210D822
:100F50004900401EB0FBF1F2521CC2F30B02042AFE
:100F600001D2042022E0B0FBF1F0401CC0F30B00E2
:100F70001CE0A368CBB301EBC10202EB0116421ED9
:100F8000B2FBF6F2521C42F48042120536D06BB32B
:100F900001EBC10202EB0111401EB0FBF1F0401C5D
:100FA000C0F30B0040F4804040F400402168C86169
:100FB000D4E90701084321680860D4E90310084315
:100FC00021688860D4E9050108432168C860206869
:100FD000016841F0010101602564202084F83D0092
:100FE000256384F83E50002070BD00E008E001EB6E
:100FF0004106421EB2FBF6F2521CC6E70120D5E7BD
:1010000001EB4101401EB0FBF1F0401CC0F30B00AE
:10101000CAE70000A086010080841E0000093D0090
:1010200040420F002DE9FF4F83B09A46DDE911875A
:1010300093460446DDF84090FFF74EFF054694F8CE
:101040003D00202872D1192301227B4920460095BA
:1010500001F0BFF80028F5D194F83C00012865D0D4
:10106000012084F83C0020680168C90703D10168A9
:1010700041F0010101602068016821F40061016014
:10108000222084F83D00402084F83E00002626649B
:10109000C4F82490A4F82A806848E062608D208516
:1010A000CDE9007553465A462046049900F0A2FF48
:1010B00028B1206C84F83C60042851D075E0208D64
:1010C000DFF87C8168B1012814D00228206801680B
:1010D0001ED041F480610160206841698069009000
:1010E0009BE02068416981690091016841F40071C9
:1010F000016092E02068016821F48061016072B6AD
:101100002068416981690091016841F400710AE039
:1011100041F40061016072B6206841698169009103
:10112000016821F48061016062B676E081E0032805
:1011300050D801280BD002283B464FF00002414610
:101140002046009512D001F044F870BB13E02A4607
:101150003946204601F0B2F830B1206C202824D066
:10116000012007B0BDE8F08F20684BE001F031F8B6
:10117000D8B972B61BE02068016821F48061016073
:1011800072B620680169606A421C62620170208D3B
:10119000401E2085608D401E60853B4600224146F2
:1011A0002046009501F015F808B10320D9E7206822
:1011B000016841F40071016020680169606A421CA5
:1011C00062620170208D401E2085608D401E60850A
:1011D00062B6C9E72A463946204601F06FF8002872
:1011E000BBD120680169606A421C62620170208D77
:1011F000401E2085608D401E608520684169C9437E
:1012000049070AD40169606A421C62620170208D3C
:10121000401E2085608D401E6085208D002886D16F
:10122000202084F83D0084F83E6084F83C60002073
:1012300097E7022095E70000020010000000FFFF82
:10124000040001002DE9FF4F83B09A46DDE91187C4
:1012500093460446DDF84090FFF73EFE064694F8BC
:101260003D0020287DD119230122434920460096C4
:1012700000F0AFFF00287CD194F83C00012878D022
:10128000012084F83C0020680168C90703D1016887
:1012900041F0010101602068016821F400610160F2
:1012A000212084F83D00402084F83E00002525647C
:1012B000C4F82490A4F82A803048E062608D20852C
:1012C000CDE9007653465A462046049900F00AFFBD
:1012D00080B3206C84F83C50042848D008E03246A3
:1012E0003946204601F01BF830B1206C042839D073
:1012F000032007B0BDE8F08F606A411C616221687D
:1013000000780861208D401E80B22085618D491EC5
:10131000618521684A69D24352070BD468B1606A7B
:10132000421C626200780861208D401E2085608D1D
:10133000401E6085208D0028D1D132463946204696
:1013400000F020FF0028D0D154F83D0B016841F493
:1013500000710160202004F81E09E5776577002000
:10136000C7E706E02068016841F4007101600120D0
:10137000BFE70220BDE70000020010000000FFFFF1
:1013800000B500680C4985B0884212D1C020009099
:10139000122001900320039069460848FFF7B4FC2F
:1013A0000748C16941F40011C161C06900F400102F
:1013B000049005B000BD000000540040000C014046
:1013C0000010024002488168027811448160704731
:1013D00098010020074810B5016841F01001016034
:1013E000032000F09FF8002000F006F800F024F839
:1013F000002010BD0020024070B50D4D04464FF492
:101400007A712878B1FBF0F00A490968B1FBF0F075
:1014100000F01FFB48B9102C07D200222146501EB5
:1014200000F060F800206C6070BD012070BD00000D
:1014300098010020A40100201D4808B5816941F0F1
:1014400001018161806900F001000090032000F03B
:1014500069F8002211466FF00B0000F043F80022FB
:1014600011466FF00A0000F03DF8002211466FF0BF
:10147000090000F037F800221146501F00F032F842
:1014800000221146101F00F02DF800221146901E78
:1014900000F028F800221146501E00F023F80548FD
:1014A000416821F0E06141F00071416008BD000039
:1014B000001002400000014000F01F020121914095
:1014C0004009800000F1E020C0F88011704700F072
:1014D0001F02012191404009800000F1E020C0F886
:1014E00000117047F0B40E4B1B680C46C3F3022387
:1014F000C3F10705042D00D90425191D072901D2C0
:10150000002300E0DB1E012606FA05F1491E2140FA
:1015100099409E40761E16403143F0BC01F018BA47
:101520000CED00E0064900F0070208684FF6FF03E3
:10153000184040EA0220034A104308607047000048
:101540000CED00E00000FA052DE9F047DFF83C81E2
:1015500005460E46D8F8000000F00700B0420CD255
:10156000D8F8001021F007013143C8F80010D8F86E
:10157000000000F00700B04263D12878444C800797
:1015800005D56068A96820F0F000084360602878FD
:10159000C00745D06868012816D02168022816D0F7
:1015A000890700294DDA616821F003010143616078
:1015B000FFF792FC6968074641F2883001290FD095
:1015C0000229814619D027E021688903E9E78901CA
:1015D000E7E700BFFFF780FCC11B494501D918E0D0
:1015E00081466068C0F381000128F3D118E000BF94
:1015F000FFF772FCC11B49450BD86068C0F381003E
:101600000228F5D10CE000BFFFF766FCC11B49457D
:1016100002D90320BDE8F087606810F00C0FF3D109
:10162000D8F80010404601F00701B1420BD901681B
:1016300021F0070131430160006800F00700B0426B
:1016400001D00120E6E72878400705D56068E96801
:1016500020F4E060084360602878000706D56068E1
:10166000296920F4605040EAC100606000F02CF865
:101670006168084AC1F30311515CC840064908601B
:101680000020FFF7B9FE0020C4E700000020024060
:101690000010024044C80008A4010020014800686E
:1016A00070470000A401002004480549006849680B
:1016B000044AC1F30221515CC8407047A4010020D4
:1016C0000010024054C8000812A185B00FC98DE86F
:1016D0000F0014A0144A006804905168134801F0E8
:1016E0000C03042B10D0082B0ED1C1F38343C90384
:1016F0001DF803000AD5516804AAC1F34041515CAA
:101700000A4A5043B0FBF1F005B07047084948431E
:10171000FAE7000002030405060708090A0B0C0D8E
:101720000E0F1010010200000010024000127A009B
:1017300000093D002DE9F84F04460078B94DC00777
:1017400048D06868C0F38100012807D06868C0F3FA
:101750008100022809D16868C00306D52868800383
:1017600038D5606800286FD034E06068B0F5803FFD
:101770000BD010B1B0F5A02F11D0286820F4803024
:101780002860286820F4802002E0286840F4803037
:101790002860606888B1FFF79FFB064609E028686B
:1017A00040F480202860F0E7FFF796FB801B642858
:1017B00075D828688003F7D50CE0FFF78DFB064647
:1017C00005E000BFFFF788FB801B6428F0D828687D
:1017D0008003F7D42078944E80074FF001094FF032
:1017E00000083BD5686810F00C0F07D06868C0F39C
:1017F0008100022809D16868C00306D428688007E0
:1018000014D5206901281FD110E02069B0B1C6F8B5
:101810000090FFF761FB074605E000BFFFF75CFBA8
:10182000C01B0228C4D828688007F7D528686169DA
:1018300020F0F80040EAC10028600FE0C6F8008000
:10184000FFF74AFB074606E0E9E000BFFFF744FB6D
:10185000C01B022823D828688007F7D42078000707
:101860002CD57248A169D9B1C0F80090FFF734FBBC
:10187000074604E0FFF730FBC01B02280FD8686A58
:101880008007F7D56A484FF4FA510068B0FBF1F0D1
:10189000009000BF0098411E0091FAD20EE080E057
:1018A000C0F80080FFF718FB074604E0FFF714FBC1
:1018B000C01B022875D8686A8007F7D420784007D3
:1018C00060D5E8690027C00008D4E86940F080507E
:1018D000E861E869012700F08050009055480168F0
:1018E000C90513D40168834641F480710160FFF794
:1018F000F3FA824606E000BFFFF7EEFAA0EB0A001B
:1019000064284ED8DBF80000C005F5D5E068012852
:101910000AD008B1052813D0286A20F001002862F7
:10192000286A20F0040002E0286A40F001002862E2
:10193000E06841F2883B98B1FFF7CEFA82460BE0AF
:10194000286A40F004002862EEE700BFFFF7C4FAFF
:10195000A0EB0A0159455AD8286A8007F6D50CE051
:10196000FFF7BAFA824605E0FFF7B6FAA0EB0A01E4
:1019700059454CD8286A8007F6D41FB1E86920F091
:101980008050E861E06988B36968C1F38101022988
:1019900045D00228C6F8608004D0FFF79DFA0446BF
:1019A00038E034E0FFF798FA074604E0FFF794FACE
:1019B000C01B02282BD828688001F7D4206AB0F514
:1019C000803F05D16868A16820F400300843686052
:1019D000D4E908010843696821F474110843686078
:1019E000C6F86090FFF778FA044606E015E000BFFD
:1019F000FFF772FA001B022809D828688001F7D582
:101A00000BE000BFFFF768FA001B022802D9032091
:101A1000BDE8F88F28688001F4D40020F8E70120A1
:101A2000F6E70000001002400000424280044242FB
:101A3000A4010020007000404FF0E0210428086954
:101A400003D020F004000861704740F00400FAE77A
:101A5000704710B5401EB0F1807F01D3012010BD4A
:101A60004FF0E02460610F21601700F071FF00204B
:101A7000A06107202061002010BD10B5FFF7E8FF2E
:101A800010BD7047704730B590F83C20012A20D037
:101A9000012280F83C20022380F83D3003685C6816
:101AA00024F070045C6003685C680D682C435C6023
:101AB00003689C6824F080049C6003689C68496803
:101AC0000C439C6080F83D20002180F83C100846C3
:101AD00030BD022030BD10B5040003D094F83D00A5
:101AE00010B107E0012010BD002084F83C00204622
:101AF00000F00CF8022084F83D00211D206801F060
:101B000069FD012084F83D00002010BD08B5154A8C
:101B10000168154891420ED1C16941F00201C161CD
:101B2000C069002200F00200009011461D20FFF75E
:101B3000D9FC1D2010E00D4A914211D1C16941F03C
:101B40000401C161C069002200F004000090114648
:101B50001E20FFF7C7FC1E20BDE80840FFF7B7BCFA
:101B600008BD0000000400400010024000080040D2
:101B70000168CA6842F00102CA600068016841F069
:101B800001010160002070470168CA6822F001026B
:101B9000CA600068016A41F21112114207D1016A5C
:101BA0009210114203D1016821F00101016000206F
:101BB000704770B5044690F83C00012817D0012505
:101BC00084F83C50022084F83D002068826822F0AE
:101BD000770222F47F4282600868502837D00DDCFB
:101BE000202859D005DC88B3102841D151E00220CB
:101BF00070BD302853D040283AD13FE060282ED025
:101C000070280BD0B0F5805F03D0B0F5005F2FD106
:101C100010E02068816821F0070115E0CB68D1E968
:101C20000121206801F017FD2168886840F07700E5
:101C300088601DE0CB68D1E90121206801F00BFD2F
:101C40002068816841F48041816011E01EE0CA682B
:101C50004968206801F0B4FD5021206806E0CA6898
:101C60004968206801F0BDFD6021206801F0FDFC9D
:101C700084F83D50002084F83C0070BDCA68496873
:101C8000206801F09DFD40212068EFE700212068D9
:101C9000ECE710212068E9E720212068E6E7302101
:101CA0002068E3E7704770B50446006801694FF0AB
:101CB0000005C943890715D4C168C943890711D4F0
:101CC000E91E016101202077206880698007204695
:101CD00002D0FFF7E7FF04E000F0B6F8204600F07E
:101CE00049F9257720680169C943490717D4C168B4
:101CF000C943490713D46FF0040101610220207722
:101D00002068806910F4407F204602D0FFF7CAFFA8
:101D100004E000F099F8204600F02CF925772068BF
:101D20000169C943090716D4C168C943090712D418
:101D30006FF008010161042020772068C0698007E6
:101D4000204602D0FFF7AEFF04E000F07DF8204609
:101D500000F010F9257720680169C943C90617D436
:101D6000C168C943C90613D46FF01001016108208E
:101D700020772068C06910F4407F204602D0FFF72A
:101D800091FF04E000F060F8204600F0F3F82577BA
:101D900020680169C943C90708D1C168C943C90797
:101DA00004D1891E0161204600F0FEF82068016917
:101DB000C943090609D4C168C943090605D46FF0AF
:101DC000800101612046FFF75CFE20680169C9437C
:101DD000490609D4C168C943490605D46FF04001DA
:101DE0000161204600F0F0F820680169C9438906C6
:101DF0000BD4C168C943890607D46FF02001016183
:101E00002046BDE87040FFF73DBE70BD1FB50068BD
:101E1000B0F1804F12D14FF4006000900220019089
:101E2000039069460648FEF76FFF0648416821F4B3
:101E3000407141F0E06141F4007141601FBD00005C
:101E4000000C014000000140704770B5044690F856
:101E50003C000D4601280DD0012684F83C6002208C
:101E600084F83D0042B1042A18D0082A2AD00C2A4E
:101E70004DD139E0022070BD206801F0FFFB2068E1
:101E8000816941F0080181612068816921F00401C4
:101E90008161206881692A69114311E0206801F09D
:101EA00015FC2068816941F40061816120688169C5
:101EB00021F480618161206881692A6941EA0221F7
:101EC000816124E0206801F02DFC2068C16941F0A7
:101ED0000801C1612068C16921F00401C161206865
:101EE000C1692A69114311E0206801F047FC2068AC
:101EF000C16941F40061C1612068C16921F4806158
:101F0000C1612068C1692A6941EA0221C16184F87E
:101F10003D60002084F83C0070BD10B5040003D083
:101F200094F83D0010B107E0012010BD002084F8B6
:101F30003C00204600F00CF8022084F83D00211DF2
:101F4000206801F047FB012084F83D00002010BD0F
:101F500008B50068B0F1804F08D10548C16941F06B
:101F60000101C161C06900F00100009008BD0000DE
:101F7000001002407047000010B5044600680122BE
:101F800001F05EFB07492068884203D1416C41F4AF
:101F9000004141642068016841F0010101600020B6
:101FA00010BD0000002C014000680549884201D1A5
:101FB00003F076BF0349884201D100F009BA7047A7
:101FC00000080040000400407047FEE701684A69CD
:101FD000D24352050CD46FF480624A61042101643B
:101FE000002140F8301F2022427301730120704706
:101FF000002070472DE9F84F0446006889460B9D84
:1020000001689846174641F48061016020680168C4
:1020100041F48071016000954FF0011A0022514691
:1020200020460A9B00F0D5F8F0BB216809F0FE00BD
:1020300008610AF1010B2B46594620460A9A00F026
:10204000F9F818B1206C042812D03AE020684169F0
:10205000806900902A4620460A9900F060F950B144
:10206000206C04282DD12068016841F400710160C2
:102070000120BDE8F88FFEB2B8F1010F09D0216848
:10208000380A08612A4620460A9900F048F90028D3
:10209000E6D1206806612A4620460A9900F03FF9F9
:1020A0000028DDD1206800E00BE0016841F4807178
:1020B000016000950022514620460A9B00F089F8F5
:1020C00008B10320D5E7216809F0FF0040F00100C6
:1020D00008612B46594620460A9A00F0ABF80028C2
:1020E000B0D1C6E72DE9F843044600680D46DDE9A6
:1020F000089701689846164641F4807101604B4686
:1021000000224FF001112046009700F062F8E8B974
:10211000216805F0FE0008613B464A461849204602
:1021200000F088F828B1206C04280FD10120BDE808
:10213000F88320684169806900903A464946204604
:1021400000F0EDF820B1206C042813D00320EEE756
:10215000F5B2B8F1010F09D02168300A08613A469A
:102160004946204600F0DBF80028ECD120680561E4
:102170000020DCE72068016841F400710160D5E7C8
:102180000200010070B516460D4604461AE02046CE
:10219000FFF71CFF08B1012070BD681C12D025B1EB
:1021A000FEF79AFE801BA8420CD954F8400F40F06D
:1021B000200044F810090020206020216173207362
:1021C000032070BD20684069C0434007DFD4002071
:1021D00070BD2DE9F0471E4690460D460446C1F3FA
:1021E0000747DDF8209012E0701C10D02EB1FEF7EA
:1021F00073FEA0EB0900B04209D9002044F8300F6B
:1022000020216173A07320730320BDE8F08720684C
:10221000012F0AD0806925EA00000004000C06D0D6
:1022200000214145E0D00020EFE74069F3E70121BC
:10223000F7E700002DE9F0479A4691460D4604461F
:1022400000264FF02008C1F307472AE020684069C4
:10225000C043400512D42068016841F40071016058
:1022600021686FF48060486104202064266384F84C
:102270003D8084F83C600120BDE8F087B9F1FF3F64
:102280000FD0B9F1000F05D0FEF726FEA0EB0A0132
:10229000494506D944F8306F84F80D802673032031
:1022A000EAE72068012F07D0D0F8180025EA0000DF
:1022B0000004000CE0D0C9E74069F7E72DE9F041E0
:1022C000002590460E460446202721E04069C04381
:1022D000C0060CD421686FF01000486125642563A6
:1022E00084F83D7084F83C500120BDE8F0812EB1A7
:1022F000FEF7F2FDA0EB0800B04209D954F8400FF8
:1023000040F0200044F80409677025700320ECE7D2
:1023100020684169C9434906D8D40020E5E770B573
:1023200016460D4604461AE02046FFF74FFE08B158
:10233000012070BD681C12D025B1FEF7CDFD801BB9
:10234000A8420CD954F8400F40F0200044F810097E
:1023500000202060202161732073032070BD20685D
:102360004069C0430006DFD4002070BD10B5164898
:10237000FFF70AFC14480068446A46F2C031416223
:102380001148FFF7F5FB1148A4F5C644C03C41785D
:1023900071B101290ED0022909D1416840F2DC5205
:1023A00049004160944202D941F00101416010BDF1
:1023B000012107E040F6B8320021944202D90222FE
:1023C0004270F3E7417010BD4402002090010020EC
:1023D0007FB58348FFF7D8FB824C00256078012841
:1023E0002FD002282ED10920FFF766F865707C48AF
:1023F000FFF7CAFBA278A1887B48002A89B27DD06A
:1024000000291DD003888B42FBD043888B42F8D033
:1024100083888B42F5D0C3888B42F2D003898B42EC
:10242000EFD043898B42ECD0012A0CD0022A27D06E
:10243000032A4AD0042A64D0052A7CD0062A7BD0FD
:10244000C7E065707FBD0222A270018000F02AFB08
:102450000021084600F020FB64A10023D1E900011F
:10246000CDE900011A461F21684600F0E4FB102167
:10247000002000F011FB5FA10023D1E900015FE023
:102480000322A270418000F00DFB0021084600F0FD
:1024900003FB5AA11F22D1E90001CDE9000100236D
:1024A0001146684600F0C7FB1021002000F0F4FA46
:1024B00054A10023D1E900015FF01F02CDE9020120
:1024C0001F2102A800F0B7FB83E00422A2708180E4
:1024D00000F0E8FA0021084600F0DEFA47A11F23C9
:1024E000D1E90001CDE900011A461946684600F01D
:1024F000A2FB1021002000F0CFFA00E04AE043A147
:1025000018E00522A270C18000F0CCFA0021084634
:1025100000F0C2FA39A01F23D0E90010CDE9001065
:102520001A461946684600F086FB1021002000F08C
:10253000B3FA38A101E005E025E0D1E900011F234D
:102540000022BBE70622A270018100F0ABFA002155
:10255000084600F0A1FA29A11F23D1E90001CDE925
:1025600000011A461946684600F065FB102100205C
:1025700000F092FA29A11F23D1E900010022CDE940
:10258000020111469DE741810520FEF7F1FA002086
:10259000A0701EE002888A4201D1012003E0428837
:1025A0008A4202D10220207013E082888A4201D13F
:1025B0000320F8E7C2888A4201D10420F3E70289A8
:1025C0008A4201D10520EEE74089884201D10620E8
:1025D000E9E704B00920BDE87040FEF778BF0000CD
:1025E00044020020900100206E1F00204769A56D65
:1025F00020B4CF0073A36E670000000048C96320B9
:102600006ED674006D656E75000000007472A3696B
:10261000000000007068A5690000000074686FA3E6
:102620007400000010B53D4C8AB010212046FEF722
:1026300049FC00286FD11420FEF724FB102120460E
:10264000FEF740FC0028F9D0002000F089FA0021B4
:10265000084600F021FA32A01F23D0E90010CDE98E
:1026600003100022194603A800F0E5FA102100200B
:1026700000F012FA2CA21F2307CA8DE807000022DF
:102680001946684600F0D7FA40F2DC50FEF7FAFA35
:10269000012000F065FA012000F0C6FE00240021B0
:1026A000204600F0BBFE641C062CF8DB0021084627
:1026B00000F0F2F91FA10023D1E90001CDE90501E5
:1026C0001F22194605A800F0B6FA1021002000F0DC
:1026D000E3F91AA10023D1E90001CDE907011F2286
:1026E000194607A800F0A7FAFEF7B0FA0028FBD1B8
:1026F00000242046FEF7A4FA01462046FEF738FAE9
:10270000641C062CF5DB002000F02AFA0D4801219C
:10271000807803F03DF80AB010BD0000000C0140C5
:102720004368BB20B4CF000068C963206CBF6E68EB
:102730000000000054A86E6720B4CF0073A36E673A
:1027400000000000000000202DE9F0412B4886B079
:10275000816941F020018161816901F020010491CA
:10276000816941F004018161816901F004010491F2
:10277000816941F0080181618069214F00F0080002
:1027800041F6FF740490012221463846FEF79FFB74
:10279000DFF8708041F22746012231464046FEF7BD
:1027A00096FB00940124032569463846039501945D
:1027B000FEF7AAFACDE90064694640460395FEF7A4
:1027C000A3FA0820009010480025CDE901056946CC
:1027D0004046FEF799FA1020CDE9000569460294BB
:1027E0004046FEF791FA002211460920FEF77AFED4
:1027F0000920FEF76CFE06B0BDE8F0810010024033
:1028000000080140000C0140000021100B4810B5E9
:10281000094901600A49416000214FF4804281600A
:10282000C0E9031241618161C1610162FEF75AFB97
:10283000002800D0FEE710BD00540040B001002089
:10284000A086010010B516488AB04FF080410160A3
:1028500001210024C0E901144FF4C871C0E9031438
:102860008461FFF75AFB00B1FEE7079407A90C4803
:102870000894FFF708F900B1FEE76020CDE90004F5
:10288000022002900C22694604940548FFF7DDFA05
:1028900000B1FEE70248FFF7B9FA0AB010BD000028
:1028A0000402002010B5134886B011490160472189
:1028B0000024C0E901144EF66021C0E903148461CC
:1028C000FFF709F900B1FEE74FF480500090694628
:1028D0000848FFF76EF900B1FEE7049404A9054823
:1028E0000594FFF7D0F8002800D0FEE706B010BD31
:1028F000000400404402002010B5134886B011497E
:10290000016048F6A0410024C0E901142621C0E975
:1029100003148461FFF7DFF800B1FEE74FF4805045
:10292000009069460848FFF744F900B1FEE70494B7
:1029300004A905480594FFF7A6F8002800D0FEE793
:1029400006B010BD0008004084020020FEE770477A
:102950000907090E002806DA00F00F0000F1E02058
:1029600080F8141D704700F1E02080F800147047D3
:102970000149085C704700006E1D002010B5002161
:10298000084A0B465354491C8029FBDB002104787C
:1029900024B15454401C491C8029F8DB024883614F
:1029A000436110BD6E1D00204000002001494860B9
:1029B00070470000400000202DE9F04FDFF8CCA068
:1029C0009AF80000002856D0DFF8C4800023AAF54A
:1029D000C054D8F8040000F11005002204EBC3270E
:1029E000014608E007EB811606EB020C491C9CF837
:1029F00001C006F802C0A942F4DB521C3F2AEFDBFB
:102A00005B1C032BE9DB0026B346204904EBC627F9
:102A1000803101EBC619D8F804500EE04369691AF9
:102A2000D8F818001AF8032003F01CFB012824D062
:102A300007EB851181F83FB06D1CD8F804104046B3
:102A400001F110029542E9DB761C032EDDDB836980
:102A5000104D5B1C836141691AF801402C5D9C425A
:102A600009D1491CC0E9051B1AF801105B46002971
:102A700001D1C8F81430BDE8F08FD8F8141019F857
:102A8000010007EB851181F83F00D5E76E1D00209E
:102A9000400000206A910008014AC2E90201704723
:102AA0004000002010B50020094B02465FF00001F5
:102AB00003EB8114491C22540444202984F8002883
:102AC00004F580542270F3DB401C4028EEDB10BD7F
:102AD0006E05002010B50020094B02465FF0000192
:102AE00003EB8114491C22540444102984F8002863
:102AF00004F580542270F3DB401C4028EEDB10BD4F
:102B00006E0500202DE9F04F9E469346002300FB02
:102B100001FA01EB0E0500EB0B0710495A460AFBC0
:102B200003F401EBC32611E0DDF824C071460CEB81
:102B3000020908E001FB004818F809C006EB8118FB
:102B4000491C08F802C08D42F4DC521C9742EBDCB1
:102B50005B1C032BE1DBBDE8F08F00006E0500205D
:102B60002DE9FC4105461F2000F04DFC00F0FF0858
:102B70001F2000F048FCC7B21F2000F044FCC6B282
:102B8000002465B3254D00260021002205EB8213A9
:102B90005818521C47785F5490F8013880F8003874
:102BA00000F58050202A43780370EFDB491C3F2951
:102BB000EBDB002005EB8011401C81F83F4081F8E1
:102BC0003F4801F58051202881F83F40F2DB0C207E
:102BD000FEF758F8761C402ED6DBBDE8FC81CDE927
:102BE000007643462A461021202000F073FA1E206A
:102BF000FEF748F86D1C242DF1DB0025009400231E
:102C00002A4610212020019400F064FA1E20FEF7CD
:102C100039F86D1C242DF1DBDFE700006E05002084
:102C200010B5044603E000BF00F088F9641C20786A
:102C30000028F9D110BDF0B51D4616460F460446D2
:102C400005E02B463246394600F0C6F9641C207870
:102C50000028F6D1F0BD00002DE9FC4F04462C48B9
:102C60002C4A0025005D125C02B9102201292CD1EA
:102C70002948002386680196D0F80C9009F1100AC3
:102C80002648494600EBC32B0BF5507EB71811E0E0
:102C90000BEB811C3046CDF800C008E00D2931D087
:102CA000DDF800804FF0000C08F800C0401C87429F
:102CB000F4DC491C5145EBDB5B1C032BE0DB1648C5
:102CC0000199641C11446D1C8160114E305D002817
:102CD00016D00221284600F0F3FB034601212846C6
:102CE00000F0EEFB07460021284600F0E9FB014614
:102CF000305D3A4600F070F9641C6D1C0A2DE5DD6C
:102D0000BDE8FC8F4FF01F0C0EF800C0CEE70000AE
:102D10006E1D00206A910008400000206E05002012
:102D20002DE9FC4F83460020019000908DF804208F
:102D300006278DF803108DF80530BBF10A0F00D17E
:102D40000427DFF8748000264046D8F80C4025E0C0
:102D50001A49EA4601EBC62101EB8419856816E0A1
:102D60003F2D1ADC1F2C18DC002D0FDB002C0DDB97
:102D7000D8F80C00211AA81A5A4603F08DF900EB76
:102D8000400101EB0A00815D09F805106D1CD8F8BF
:102D900008204046B918A942E2DC641CC168C91D7C
:102DA0008C42D5DB761C032ECEDB8168891DC8F8EA
:102DB0000810BDE8FC8F0000400000206E050020D8
:102DC0002DE9FF4F82B08146049888464FF00D0BE5
:102DD0000A2801D34FF0050B002608F1140A4546D6
:102DE00046E04C460BEB04073FE02548A5EB080105
:102DF000C0782028A4EB090009D2DDE9042303F000
:102E0000EDF800EB40011E480844815D1EE0CDE96D
:102E10000001DDE9042303F0E1F8F0B11848194995
:102E2000C078C0F1FF00C0EB0010C0EBC00001EBA8
:102E3000C000C6EBC60101EB810100EBC1010198A6
:102E4000C0EBC00001EB40010098095C0E4800EBAC
:102E5000C62000EB8510015506E00B49002001EB70
:102E6000C62101EB85110855641CA742BDDC6D1C11
:102E70005545B6DB761C032EB1DB06B0BDE8F08FFE
:102E80005C000020539E00086E0500202DE9FF4FD6
:102E900084B08046002089464FF0090B00900BB1AA
:102EA0000120009006980A2801D34FF0030B00265A
:102EB00009F10C0A15484D4600EBC6200BEB08073C
:102EC00003901BE0A5EB090002900398444600EB39
:102ED000851001900FE000BFA4EB0800009B069A4C
:102EE000029903F09DF800EB400109480844815D18
:102EF00001980155641CA742EEDC6D1C5545E1DBD1
:102F0000761C032ED6DB08B0BDE8F08F6E050020DE
:102F10005C00002070B50E460546002409E031191A
:102F2000401E8B784A78315DC0B2FFF7F9FEE41C91
:102F30006D1C28780028F2D170BD00002DE9F04FFB
:102F40000746224881683F293DD0DFF8849000265B
:102F50008046C56824E01F49DFF870B001EBC62148
:102F60000BF11C0B01EB851A846810E03F2C16DC7A
:102F7000D8F80C00291AA01A3A4603F073F800EBAF
:102F8000400101EB0B00815D0AF80410641C19F884
:102F90000710D8F8082040461144A142E6DC6D1C19
:102FA000C16810318D42D6DB761C032ED1DB19F8B7
:102FB0000710D8F808201144C8F808103F2902DD8E
:102FC0003F21C8F80810BDE8F08F00004000002045
:102FD0006A9100086E0500202DE9FC4F074600208D
:102FE0000090019023488DF804208DF803108DF88F
:102FF000053081683F293AD0DFF87C900026804672
:10300000C56821E01D49EB4601EBC62101EB851A9D
:10301000846810E03F2C16DCD8F80C00291AA01A9E
:103020003A4603F01FF800EB400101EB0B00815D15
:103030000AF80410641C19F80710D8F80820404654
:103040001144A142E6DC6D1CC16810318D42D9DB10
:10305000761C032ED4DB19F80700D8F8082010449A
:10306000C8F808003F2802DD3F20C8F80800BDE886
:10307000FC8F0000400000206A9100086E050020CF
:10308000FEB550B10020009001900A2302901A462C
:103090001321192000F04EF9FEBD0D4F132505EB4D
:1030A0008500192407EB4006301910F80F1C009119
:1030B00010F8733C10F8D72C2946204603F006F888
:1030C000641C232CF0DB6D1C1D2DE8DBFEBD000015
:1030D000620000202DE9FF4F85B08846139E012A2B
:1030E00060DB500040421446C2F101094FF0010A72
:1030F0000025A8EB020708EB040B019007E00096FF
:103100003946129B089A059802F0E0FF7F1CBB45E8
:10311000F5DA45E0B9F1000F04DB0198801C814429
:10312000641E01906D1C08EB0500029005980AF1E1
:10313000020A284404900598D144401B08EB040B74
:10314000A8EB040703900EE000963946129B089AFC
:10315000049802F0BBFF00963946129B089A039828
:1031600002F0B4FF7F1C5F45EEDD0598A8EB050774
:10317000204403900598A0EB040B0EE0009639461E
:10318000129B089A039802F0A1FF58460096394610
:10319000129B089A02F09AFF7F1C02988742EDDD8D
:1031A000A542B7DB09B0BDE8F08F0000F0B51F2ADB
:1031B000DDE9057602D91F22002401E000240DE09C
:1031C000084D01EB040C05EB8C15641C2B540544D5
:1031D000E4B285F8007805F580552E709442EFD35F
:1031E000F0BD00006E050020F0B53F2ADDE905C7FF
:1031F00002D93F22002401E000240CE0074D06190B
:1032000005EB8115641CAB553544E4B285F800C864
:1032100005F580552F709442F0D3F0BD6E05002067
:103220002DE9FC4F5D1ADDE90B6C0D9FA2EB000848
:10323000C5F10004A946C346A24600D52546141A86
:103240006442B8F1000F00DAA046454501DD0125D2
:1032500000E00025904217D15FEA090400D55446EA
:103260008B4204F1010404DDE2B2C9B2C0B23346BC
:1032700004E0E4B2D9B2D0B233462246CDE900C769
:10328000FFF794FFBDE8FC8F994216D15FEA0B056A
:1032900000D45C46824204F1010404DDE2B2C9B20A
:1032A000C0B2334604E0E4B2D9B2D0B233462246CB
:1032B000CDE900C7FFF798FFE4E72DB104460846C3
:1032C000214614461A462346904205DD0446104620
:1032D00022460C4619462346A2EB00085C1A00D58C
:1032E0006442A24608EBD8746410DFF844B09942F7
:1032F00001DA012301E04FF0FF33994614E025B1D4
:103300000BEB80135E540B4403E00BEB81131E5454
:103310000344B4EB0A0483F800C803F580531F701C
:1033200001D549444444401C9042E8DDAAE700002E
:103330006E0500202DE9FC4F9046824640449B4696
:10334000401E8946DDE90C45C7B209EB0B00401E63
:103350001A46C6B2CDE9004550460B9BFFF726FF43
:10336000CDE900455A46494638460B9BFFF71EFFFC
:10337000CDE900454246494650460B9BFFF734FFD6
:10338000CDE900454246314650460B9BFFF72CFFE6
:10339000BDE8FC8F2DE9FE4707460BA81C4690E8C8
:1033A00000071F2000900190029015460E463846F7
:1033B000FFF7C0FF8DE80007A41EAD1E761C7F1C22
:1033C000E3B2EAB2F1B2F8B200F002F8BDE8FE876B
:1033D0002DE9FC470446DDE90B76104498468A4601
:1033E000C5B2DDF8289009E0CDE900764B464246AB
:1033F00051462046FFF7DAFE641CE4B2AC42F3D338
:10340000BDE8FC87704710B50446FCF79BFE641CC2
:1034100090FBF4F104FB110010BD0000014A22F8FA
:10342000101070476E1F002001498870704700001F
:103430009001002001490861704700004000002011
:10344000014908707047000090010020704700009B
:10345000024BD87019715A71704700005C0000204F
:103460002DE9F041114E3046FDF7C4FBFDF7E6FBB8
:103470000F4C002506EB4507206940F00100206154
:10348000E068C007FCD12846FFF772FA3880E06890
:10349000C007FCD1206920F0010020616D1C802D47
:1034A000E8DBBDE8F041FDF7C7BB000000F801080C
:1034B00000200240014931F81000704700F801086F
:1034C000024A02EBC111085C70470000EE1D0020AB
:1034D00030B5064C0023E518E05485F880105B1CDD
:1034E00085F80021802BF6DB30BD0000EE1D0020AA
:1034F000014A1154704700006E1D002010B5FDF701
:1035000061FFBDE81040FEF7B8BA30B58FB00121B9
:103510000804CDE900100024029402250491CDE9AD
:1035200007504FF4E01009906846FEF703F900B128
:10353000FEE70F20CDE90A054FF48060CDE90C408D
:1035400002210AA80E94FDF7FFFF00B1FEE7FEF787
:10355000A5F84FF47A71B0FBF1F0FEF77AFA042087
:10356000FEF76AFA00221146501EFDF7BBFF0FB0AE
:1035700030BD00000D48016841F001010160416863
:103580000B4A1140416001680A4A1140016001681C
:1035900021F480210160416821F4FE0141604FF473
:1035A0001F0181600449C003086070470010024099
:1035B0000000FFF8FFFFF6FE08ED00E00148FEF70F
:1035C00072BB0000440200200148FEF76CBB000003
:1035D00084020020F0B50268164B174C174D4FF0CF
:1035E0008047984205D0B84203D0A04201D0A842FB
:1035F00003D122F070064A683243984205D0B8429F
:1036000003D0A04201D0A84203D122F44074CA687A
:10361000224322F080044A69224302608A68C2621F
:103620000A688262984201D10969016301214161FE
:10363000F0BD0000002C01400004004000080040E4
:1036400010B50123046A8B409C430462036A8A40DC
:103650001343036210BD10B5846842EA032224F4C8
:103660007F440A432243826010BD826822F07002C8
:103670000A4342F0070181607047000030B5026ADA
:1036800022F001020262026A4368846924F0730531
:103690000C682C4322F002058A682A430A4DA8428E
:1036A0000BD122F00805CA6823F440732A434D6900
:1036B00022F004021D438B692B43436084614968F7
:1036C0004163026230BD0000002C014030B5026A47
:1036D00022F010020262026A436884690D6824F4D1
:1036E000E64444EA05248D6822F0200242EA0512ED
:1036F0000B4DA8420ED1CD6822F0800242EA05129D
:103700004D6923F4406343EA85038D6922F040024A
:1037100043EA85034360846149688163026230BD86
:10372000002C014030B5026A22F480720262036A02
:103730004268C46923F4007324F073050C682C43B9
:103740008D6843EA05230C4DA8420ED1CD6823F4C1
:10375000006343EA05234D6922F4405242EA051210
:103760008D6923F4806342EA05124260C4614968AE
:10377000C163036230BD0000002C014030B5026A15
:1037800022F480520262046A4268C3690D6823F41D
:10379000E64343EA05238D6824F4005444EA0534E3
:1037A000064DA84204D14D6922F4804242EA8512B6
:1037B0004260C36149680164046230BD002C01406D
:1037C00010B5036A046A24F001040462846924F0D9
:1037D000F00444EA021423F00A020A4384610262FC
:1037E00010BD10B5036A23F0100303628369046AF5
:1037F00023F4704343EA023224F0A00343EA0111A8
:103800008261016210BDFEE7490050EAC12018BF85
:1038100004204A0D18BF40F0010040F2FF72B2EBE5
:10382000515F08BF40F00200012808BF0520704723
:103830002DE9F74F144694B00021C4E902111599FF
:10384000079121F00045C9498D4206DC1599C4E96C
:10385000000117B00020BDE8F08FC549DFF814A3C0
:10386000A9423CDD0799C44E0029C44FC44A1599AA
:10387000534619DDFCF73DFD554506D0C14AC24B04
:10388000FCF737FDC4E900010AE04FF0D352BE4B0C
:10389000FCF72FFD32463B46FCF72BFDC4E9000147
:1038A00017B00120BDE8F08FFCF782FC554506D02B
:1038B000B44AB54BFCF77CFCC4E900010AE04FF0C8
:1038C000D352B14BFCF774FC32463B46FCF770FC1C
:1038D000C4E9000117B04FF0FF30BDE8F08FAB49ED
:1038E000A942159978DB21F0004183468846A84A11
:1038F000A84BFCF704FD0022A74BFCF759FCFCF792
:1039000081FD0990FCF76DFD06460F469C4A534623
:10391000FCF7F5FC43465A46FCF7EEFC80468A4627
:10392000984A994B30463946FCF7E9FC2A0D0125A7
:103930000B9242465346FCF7DFFC032DC4E900011D
:1039400039D00B98C1F30A51401A05EB45111139D2
:10395000814230DA9148C346784400EB0510CDF837
:103960000CA00C90D0E9002330463946FCF7C7FC88
:1039700002460B460491069058460399FCF7B9FCA1
:1039800080468A4602460B4658460399FCF7B1FC2E
:10399000049B069AFCF7ADFC83460C9803913946CC
:1039A000D0E902233046FCF7AAFC5A46039BFCF7F9
:1039B000A0FC6D1CBDE707980028A2BF099817B0AE
:1039C000BDE8F08F616881F000416160099817B02F
:1039D0004042BDE8F08FFFE784461598C1F313011C
:1039E000C0F30A50A0F2F5304FEA601800F01F064D
:1039F000C6F12000139000200690079041F4801E2D
:103A000005206D4676B1664A08EB00017A4452F80B
:103A1000213002EB8101B3404A68139922FA01F187
:103A2000194305E05F4908EB0002794451F8221080
:103A3000A1FB0E27A1FB0C131A449A4234BF0123A9
:103A4000002303EB070A05EB8003D3E901B70F441A
:103A50008F4234BF0121002193448B4411B193451F
:103A600002D903E0934501D2012100E00021C3E91E
:103A700001B7514445F82010011EA0F10100C1DC3E
:103A80000298059F00F10050800F12900298DDE926
:103A900003568000FCF7A5FC834628460D91FCF7F1
:103AA0004DFE6FF01D02FCF732FECDE90E013046EF
:103AB000FCF744FE6FF03D02FCF729FE80468A4683
:103AC0003846FCF73BFE6FF05D02FCF720FE074630
:103AD000424653461191FCF76BFBDDE90E23FCF7E0
:103AE00067FB5A460D9BFCF763FB00250E465A46C2
:103AF00028460D9BFCF7FDFBDDE90E23FCF7F9FBE7
:103B000042465346FCF7F5FB3A46119BFCF7F4FBA3
:103B1000DFF898A0244A5346FCF7F1FB0746884695
:103B2000234A244B31462846FCF7E9FB3A464346F4
:103B3000FCF73EFB074688464FF0A8425346314605
:103B40002846FCF7DCFB3A464346FCF731FB159A66
:103B500012F0004F04D0129A81F0004152421292AA
:103B6000C4E90001129817B0BDE8F08FFB21E93FCE
:103B70007CD90240FB21F93F7370032E8A19A33BC5
:103B8000000040543163621A61B4D03DFB213941D9
:103B900083C8C96D305FE43F0000E03F348F000010
:103BA000B08E0000928E0000182D4454FB21F93D88
:103BB0003326A611460B113C2DE9FF4D21F000489C
:103BC00007460C46B8F1795F08DAFCF71BFC0028C1
:103BD00001BF0020324904B0BDE8F08D3A462346CB
:103BE00010461946FCF78BFB054602462D480E464B
:103BF0000B460621784400F05DF82A463346FCF770
:103C00007EFBDDE9022382468B4638462146FCF7DF
:103C100076FB04460F4652465B4628463146FCF783
:103C20006EFB22463B46FCF764FB07468A464FF094
:103C3000FF3228463146FCF76AFD1B4A90450ADAF6
:103C40003A465346FCF755FB04B00022BDE8F04D60
:103C5000134BFCF751BB154A4245A8BFA8F5001508
:103C60004FF00004B8BF124D22462B46FCF741FB33
:103C70000646884622462B4600200949FCF739FBB8
:103C800004460D463A46534630464146FCF731FB62
:103C900004B022462B46BDE8F04DFCF72DBB0000DA
:103CA0000000F03F688C00003333D33F0000E93F51
:103CB0000000D23F2DE9F0414F1E00EBC701044642
:103CC000D1E9000115461E4637F006020DD02A46FE
:103CD0003346FCF714FB7F1E04EBC703D3E9002334
:103CE000FCF766FA37F00602F1D1022F25D0042F37
:103CF00013D0062F18BFBDE8F0812A463346FCF7E3
:103D0000FEFAD4E90A23FCF753FA2A463346FCF7B5
:103D1000F6FAD4E90823FCF74BFA2A463346FCF7B7
:103D2000EEFAD4E90623FCF743FA2A463346FCF7B9
:103D3000E6FAD4E90423FCF73BFA2A463346FCF7BB
:103D4000DEFAD4E90223FCF733FA2A463346FCF7BD
:103D5000D6FAD4E90023BDE8F041FCF729BA000007
:103D60002DE9FF4D054621F0004084B00C46B0F12E
:103D7000795F0BDA2846FFF747FD042808BF00F0FB
:103D80006FF8284608B02146BDE8F08D2A460B465C
:103D90001046FCF7B4FA06460F462A462346FCF7BF
:103DA000AEFA804626488A4632463B46052178448C
:103DB000FFF780FF83461098029160B3214A224B9F
:103DC00040465146FCF79BFACDE900015A46404671
:103DD0005146029BFCF793FA82468846DDE90601CC
:103DE0004FF0FF32FCF793FC52464346FCF781FA52
:103DF00032463B46FCF783FADDE90623FCF779FA05
:103E0000DDE90023FCF775FA08B02A462346BDE831
:103E1000F04DFCF771BA0B465A4630463946FCF76E
:103E20006EFA084A084BFCF7C3F942465346FCF7C2
:103E300066FA08B02A462346BDE8F04DFCF7B8B94B
:103E4000A68B0000495555555555C5BF0122FCF7B5
:103E50005EBC0022134610461146FCF7E9BB000089
:103E6000024A00201107FCF752BC000001FDFFFFD1
:103E700002E008C8121F08C1002AFAD17047704733
:103E8000002001E001C1121F002AFBD17047000091
:103E90000149086070470000AC010020F0B5A2F1B4
:103EA000110404EB440401EB8404DFF894E0113ABC
:103EB0000EEB840402EB420234F804CC01EB8201E5
:103EC000CCF340263EF821100CF01F07CCF343142E
:103ED00001F01F021D36059DCCF3802CC1F3431168
:103EE0004FF0010EB74201D1022A06D03844401EDD
:103EF000C0B21870B04213D916E0012807D01F28AD
:103F000007D0401E1870BCF1000F09D105E01F70EA
:103F100006E083F800E02970F0BD0C2C02D0641C90
:103F20002C70F0BD0124FBE7801B1870A4EB0C0083
:103F3000401CC0B228700D28F3D185F800E0F0BD18
:103F4000B4B800082DE9FC4100242546FEF7AAFD7F
:103F5000002001F035F9002001F060F9002001F0A7
:103F6000F5F863E0FCF7B8FF801BC82819D9C5F144
:103F70000100C5B200210846FEF78EFD0DB10121FA
:103F800000E000212046FEF767FE002001F018F94E
:103F9000002001F043F9002001F0D8F8FCF79CFF65
:103FA0000646FCF75FFE01280BD0022823D0052827
:103FB0002BD0042841D0032843D00628D2D1BDE815
:103FC000FC81012001F0FCF82046FEF7D1FC471CE3
:103FD000E82F00D90127FEF77DFDF9B22046FFF753
:103FE00087FA00210846FEF757FD00212046FEF71C
:103FF00033FE32201BE0012001F010F92046FEF7CD
:10400000B7FC471EE7D1E827E5E72046FEF7B0FCFE
:1040100060B17F2C00DA641CFEF75CFD00210846CD
:10402000FEF73AFD00212046FEF716FEC820FCF7F9
:1040300029FE0020FFF704FA94E7002CECD0641E60
:10404000EAE7FFF70DFA4FF49670FCF71BFE00202D
:10405000FFF7F6F913A10022D1E90001CDE9000133
:104060001249684600F024F8104C2B202178FCF708
:104070007FFD61782C20FCF77BFDA1782D20FCF7DB
:1040800077FD2D20FCF76EFDC5B22C20FCF76AFDF4
:10409000C4B22B20FCF766FDC0B22A462146FFF7CA
:1040A00017FA8CE74DA475206368DF001300002029
:1040B0002DE9F74F84B092460C46FCF70DFF002522
:1040C00080462F46FEF7EEFC00210846FEF7E4FC92
:1040D000A378627821780498FEF7ADFD0026207859
:1040E000CDE9000605230722132101200296FFF7E0
:1040F00051F960780523CDE90060072213210920DA
:104100000296FFF747F9A0780096CDE901600523F4
:10411000072213211120FFF73DF9002001F050F88C
:10412000002001F07BF8002001F010F8BAF1000F38
:1041300002D00020FEF7A4FF4FF4967B5846FCF710
:10414000A1FD0020FFF77CF94FF01F09FCF7C4FE2A
:10415000A0EB0800C82852D9002001F031F8002057
:1041600001F05CF8002000F0F1FFD7F101071ED04C
:1041700035B1012D0BD0022D10D0032D15D03BE011
:10418000CDF80090CDF80490CDF808901AE0CDF865
:104190000090CDF80490CDF808901BE0CDF8009089
:1041A000CDF80490CDF808901CE0002022E035B155
:1041B000012D0CD0022D12D0032D1AD01CE0009638
:1041C0000196029605230722132101200EE0009696
:1041D00001960296052307221321092006E0009686
:1041E000019602960523072213211120FFF7A2F85A
:1041F00002E00120FEF744FFFCF76EFE8046FCF76C
:1042000031FD02280FD001280DD0052851D00428F7
:104210007DD0062879D0032898D1032D76D00020B0
:1042200007B0BDE8F08F032D31DA01284FF001000F
:1042300031D000F0F3FF605DC0B3401E60552078C0
:10424000CDE9000605230722132101200296FFF77E
:10425000A1F860780523CDE9006007221321092029
:104260000296FFF797F8A0780096CDE90160052344
:10427000072213211120FFF78DF800210846FEF7D1
:104280000BFCA378627821780498FEF7D4FC002018
:10429000FFF7D6F85AE700F093FF605D401CC0B20C
:1042A00060551F28CBD904F80590C8E7FFE766558D
:1042B000C5E7CDF80090CDF804900523072213211F
:1042C0000120CDF80890FFF735F8CDF80090CDF833
:1042D00004900523072213210920CDF80890FFF749
:1042E00029F8CDF80090CDF804900523072213217A
:1042F0001120CDF80890FFF71DF80AF102006D1C9F
:1043000085422CDD00252AE001E02CE02DE0CDF8EF
:104310000090CDF804900523072213210120CDF849
:104320000890FFF707F8CDF80090CDF8049005232A
:10433000072213210920CDF80890FEF7FBFFCDF8E6
:104340000090CDF804900523072213211120CDF809
:104350000890FEF7EFFF6D1E01D50AF102055846E1
:10436000FCF790FC93E701205AE70020FEF7F8FBEA
:10437000DFF8E8900025FF2099F8022099F8011055
:10438000FFF766F8364F0A26A7F13808B8780021FB
:10439000B0FBF6F298F801300846FEF711FDB87848
:1043A00098F80130B0FBF6F106FB110200210E2057
:1043B000FEF706FD002000F003FF002000F02EFFB6
:1043C000002000F0C3FE0020FFF73AF8FCF74AFC9B
:1043D00001283AD0022805D00328F7D1C5F1FF0003
:1043E00020701CE76D1E00D50725012000F016FF88
:1043F000C5F1FF0099F8022099F80110C0B2FFF74B
:1044000027F8B8780021B0FBF6F298F8013008469A
:10441000FEF7D6FCB87898F80130B0FBF6F106FB51
:10442000110200210E20FEF7CBFC5846FCF72AFCB7
:104430000020FFF705F8002000F0C2FE002000F089
:10444000EDFE002000F082FEC0E76D1C082D00D1BB
:104450000025012000F0B4FECAE70000C4020020DD
:104460003800002070B5844E7478FEF71BFB0022E4
:104470001F211046FEF7ECFF00222346114610468E
:10448000FEF79EFC2346012200210D20FEF798FC3A
:104490002346022200211A20FEF792FC2346032223
:1044A00000212720FEF78CFC002000F089FE002070
:1044B00000F0B4FE002000F049FEC820FCF7E2FB4B
:1044C0000020FEF7BDFF00BFFCF7CCFB012841D068
:1044D00002285ED006287CD00328F5D1FEF7E2FA48
:1044E00021462820FCF744FB74700022747B1F21B6
:1044F0001046FEF7ADFF0022234611461046FEF798
:10450000C5FC2346012200210D20FEF7BFFC2346F7
:10451000022200211A20FEF7B9FC234603220021C3
:104520002720FEF7B3FC002000F04AFE002000F038
:1045300075FE002000F00AFEC820FCF7A3FB002057
:10454000FEF77EFFFCF78EFB0546012856D0022DB4
:104550004FD07EE0042C00DA641C00222346114672
:104560001046FEF72DFC2346012200210D20FEF708
:1045700027FC2346022200211A20FEF721FC2346B5
:10458000032200212720FEF71BFC012000F018FE6B
:104590001DE0002C00DD641E00222346114610465B
:1045A000FEF70EFC2346012200210D20FEF708FC39
:1045B0002346022200211A20FEF702FC2346032292
:1045C00000212720FEF7FCFB012000F027FEC82079
:1045D00000E043E0FCF756FB0020FEF731FF00202F
:1045E00000F0EEFD002000F019FE002000F0AEFD0E
:1045F0006AE70024012000F011FE03E001242046B8
:1046000000F0DEFD0022234611461046FEF73EFC78
:104610002346012200210D20FEF738FC234602220A
:1046200000211A20FEF732FC234603220021272016
:10463000FEF72CFCC820FCF725FB0020FEF700FF4E
:10464000002000F0BDFD002000F0E8FD002000F09B
:104650007DFD032D03D0062D7FF474AF70BDFEF7F2
:1046600021FA21462E20FCF783FA7473BDE87040CE
:104670006420FCF707BB0000000000202DE9F05F7C
:1046800004460AA89A4690E8200316468B46FCF793
:1046900023FC0746FEF706FA00210846FEF7FCF960
:1046A0004B46424629465846FEF7C5FA10210020DF
:1046B000FEF7F2F90A25072E13D0632E2CD000BF87
:1046C000B4FBF5F03030C0B2FEF738FCB4FBF5F0C7
:1046D00005FB10403030FEF731FC2020FEF72EFCA9
:1046E00008E0012C03D004F13000C0B2F6E743A08B
:1046F000FEF796FA002000F063FD002000F08EFD2A
:10470000002000F023FD1F2211461046FEF7A0FEF8
:104710004FF4967840465FE039A0FEF781FACFE784
:10472000FCF7DAFBC01BC82808D9002000F048FDC0
:10473000002000F073FDFCF7CFFB0746FCF792FA70
:1047400003280DD0012814D00228E9D1012000F05F
:1047500065FD002000F034FD544543D1344643E06C
:104760004046FCF78FFA0020FEF76AFE2046BDE8BF
:10477000F09F002000F052FD012000F021FD641C9C
:10478000E4B2B44230D954462EE01CA0FEF748FAF9
:1047900005E000BF04F13000C0B2FEF7CFFB19A066
:1047A000FEF73EFA14E0632E02D115A0FEF738FAA8
:1047B000B4FBF5F03030C0B2FEF7C0FBB4FBF5F04F
:1047C00005FB10403030FEF7B9FB2020FEF7B6FBAA
:1047D000FCF782FB07466420FCF754FA0020FEF742
:1047E0002FFE9DE7641EE4B210210020FEF754F96D
:1047F000072ED8D1012CCDD1C7E70000434E2000B1
:104800003230000020202020000000002DE9F0437D
:104810009BB0FCF727FA002832D00127FB4C012877
:1048200021D002282FD0032838D04FF4FA7504285D
:1048300075D00528FCD0062822D1FEF733F9207B5D
:104840000021C0F1010020730846FEF725F9207B06
:10485000002871D0EEA00023D0E90010CDE90010AF
:104860001F221946F8E2FCF7F7F9B0F5F57F03D2FD
:10487000FCF7F2F90A300DE0E770FCF72DFBA061C0
:104880001BB0BDE8F083FCF7E7F90A28F4D9FCF780
:10489000E3F90A3880B2FEF7CDFDEDE700252E469C
:1048A000FEF700F900210846FEF7F6F8DAA20DF14E
:1048B000100807CA88E8070000231F22194604A829
:1048C000FEF7B9F910210020FEF7E6F8D5A0002385
:1048D000D0E90010CDE907101F22194607A8FEF7FE
:1048E000AAF9002000F06CFC002000F097FC0020EA
:1048F00000F02CFC4FF49670FCF7C4F90020FEF792
:104900009FFDDFF8288300BFFCF7ACF9022807D031
:1049100001280CD0032812D00628F5D162E16CE200
:104920006D1CEDB2062D00D1002501261AE025B13F
:104930006D1EEDB2022615E086E20525FAE701209C
:1049400000F004FCC820FCF79DF9F5B1012D79D0E9
:10495000022D78D0032D77D0042D76D0052DDDD013
:10496000002ED1D0FEF79EF800210846FEF794F8FD
:10497000002D6BD0012D6AD0022D69D0032D68D097
:10498000042D67D0052D66D011E2A9A1DFF87C9235
:10499000D1E90001CDE9120198F8000098F8022051
:1049A00098F801108DE8070009F13809464699F892
:1049B00002000023172212A9FFF760FE0146022021
:1049C00000F0ECFA9CA209AB07CA83E80700F07874
:1049D000727931798DE8070099F8010000233B22B4
:1049E00009A9FFF74BFE0146012000F0D7FA95A078
:1049F0000CAB07C883E80700B079327AF1798DE80B
:104A0000070099F8000000233B220CA9FFF736FEAF
:104A10000146002000F0C2FA8DA10123D1E9000176
:104A2000CDE91401707AF27AB17A8DE8070099F82D
:104A30000300072214A9FFF721FE0146032000F01E
:104A4000ADFA09E048E0ABE0C2E0C8E038E152E18D
:104A500067E17FE196E19FE17FA20FAB07CA83E8A0
:104A60000700307BB27B717B8DE8070099F804006A
:104A700001231F220FA9FFF701FE0146042000F0C9
:104A80008DFA78A10123D1E90001CDE91601F07B6F
:104A9000727C317C8DE8070099F805000C2216A97C
:104AA000FFF7ECFD0146052000F078FA6FA1012325
:104AB000D1E90001CDE91801B07C327DF17C8DE8AF
:104AC000070099F80600632218A9FFF7D7FD0146F1
:104AD000062000F063FA80E066A10122D1E900011E
:104AE000CDE9000151496846FFF7E2FAF0BB63A146
:104AF0004646D1E90001CDE900010122F11C6846DA
:104B0000FFF7D6FA90BB5FA10022D1E90001CDE901
:104B10000001B11D6846FFF7CBFA38BB5BA100224C
:104B2000D1E90001CDE90001404968460931FFF7AC
:104B3000BFFAD8B957A10022D1E90001CDE900019F
:104B40003A4968460C31FFF7B3FA78B953A100220D
:104B5000D1E90001CDE90001344968460F31FFF782
:104B6000A7FA18B94FA1D1E9000100E013E0CDE99F
:104B700000012E49002212316846FFF799FA50B918
:104B80004AA10022D1E90001CDE900012749684688
:104B90001531FFF78DFA2771FCF79EF9A0611CE033
:104BA00044A209AB07CA83E807002F20FBF7DAFF0E
:104BB00003231C220E218DE80E00C0B20023172211
:104BC00009A9FFF75BFD01462F20FBF7D1FF04E0A9
:104BD000FFF7B8F90020FCF74DF86326C2E6FFF7AF
:104BE00041FCFAE7FDF75EFF0121A07800F0D0FD5F
:104BF000A078022803D10121032000F0C9FD642020
:104C0000FCF740F80020FEF71BFC39E6000000200E
:104C10004175746F204F4E0043A469207468D269B7
:104C2000000000006769616E00000000C4020020FF
:104C300043A469206769D20043A469207068D674D0
:104C40000000000043A469206769AE7900000000FD
:104C500043A469207468DC0043A469206E67A479CA
:104C600000000000432E5468A36E670043A469202F
:104C70006EA86D004DA475204769D2004D2E506876
:104C8000D67400004D2E4769AE7900004DA4752002
:104C90005468DC004D2E4E67A47900005468A36E62
:104CA000670000004D2E4EA86D0000004D204E12F2
:104CB000CF0000004769D2204175746F00000000EA
:104CC000AFF2AC0107C90DF12409002389E8070000
:104CD0001F22194609A8FDF7AEFF10210020FDF79D
:104CE000DBFEAFF2C000D0E90010CDE901100023D7
:104CF0001F22194658E067A00123D0E90010CDE932
:104D000001100C221F2101A8FDF795FF10210020A2
:104D1000FDF7C2FE61A0012300680C221F2109904B
:104D200016E05FA10523D1E90001CDE901011F22B1
:104D30000B2101A8FDF77FFF10210020FDF7ACFE3D
:104D400059A10523D1E900011F22CDE909010B2159
:104D500009A82AE056A11423D1E90001CDE90101F7
:104D60000F22012101A8FDF766FF10210020FDF7A9
:104D700093FE51A11423D1E900010F22CDE90901CD
:104D80000121E5E74EA20DF1240907CA89E80700D1
:104D900005231F221221DBE74CA10023D1E90001EA
:104DA000CDE901011A461F2101A8FDF744FF0020AB
:104DB00000F006FA002000F031FA002000F0C6F9F9
:104DC000012E02D0022E04D006E0012000F0F8F9F6
:104DD00002E0012000F022FAC820FBF753FF002078
:104DE00000F0EEF9002000F019FA002000F0AEF912
:104DF0000020FEF725FB002686E50020FBF73AFFA2
:104E000000262670FDF74EFEA078401CC0B2A070B0
:104E1000032802D0022802D005E0A67003E0012199
:104E2000032000F0B5FC0121A07800F0B1FCA178CE
:104E30002920FBF79DFE2846FBF724FF1BB000202E
:104E4000BDE8F043FEF7FCBA22A00023D0E9001031
:104E5000CDE900101A461F216846FDF7ECFE2846F2
:104E6000FBF710FF0020FEF7EBFAFDF71BFE012118
:104E7000A07800F08DFCA07802287FF4C6AE012156
:104E8000032000F085FC1BB00020BDE8F043FBF7D9
:104E9000F1BE000043A469206DA4750073A96300EE
:104EA00043A46920B4CF000073A36E670000000024
:104EB00043A469206368DF006368A77900000000ED
:104EC00043A46920666F6E740000000054686FA3ED
:104ED000742021004175746F204F4600F8B50025FD
:104EE0002E46172400231A4621462846009601F034
:104EF000EDF8641C1E2CF5DB6D1C402DF1DBF8BDBC
:104F000000B5244B21F0004287B09A42DCBF00225A
:104F1000134629DD204B9A4208D140B94FF00100D9
:104F2000FEF7B6FFFEF795FF07B000BD03DBFEF707
:104F30008DFF07B000BD02AAFEF77AFC10F0030156
:104F400004BF0DF1080C9CE80F000DD001200129D1
:104F50000ED0022914D00DF1080C00909CE80F002F
:104F6000FEF7FEFE07B000BDFEF726FE07B000BD4F
:104F70000DF1080C00909CE80F00FEF7F1FE05E033
:104F80000DF1080C9CE80F00FEF716FE07B081F04B
:104F9000004100BDFB21E93F0000F07F3EB5044623
:104FA0000846FBF719FC0146074801221346017029
:104FB000CDE900024FF47A7102912246D0210348D4
:104FC000FCF740F93EBD00000E000020B0010020BB
:104FD0002DE9F043042227490224012316048F05FA
:104FE00095034FF400394FF4806C10281ED2DFE88F
:104FF00000F0080A0C0E1014181F24272A2D303434
:10500000383C0E601AE00E601BE00E601CE00E6083
:105010001DE00E601EE00D6006E00E601EE00D60FB
:1050200009E00E601EE00B60C1F80090BDE8F0835F
:105030000E601BE00B600C60F8E70A600F60EAE7A7
:105040000A600F60EBE70A600F60ECE70A600F6030
:10505000F0E70A60C1F800C0DDE70A60C1F800C0EF
:10506000DDE70A60C1F800C0DDE70A60C1F800C0F2
:10507000E0E70000100C0140FEB5334C0646314B12
:1050800020780F46401E42F20F75C0B2DAB1022AF4
:1050900031D10A2720700B283BD81A7AD979987910
:1050A000FEF7D6F996FBF7F007FB106020B300BFC0
:1050B00096FBF7F007FB1060617B2278CDE90020BA
:1050C0000C2302912EE0207013280BD85A791979FD
:1050D000D878FEF7BDF9207814238DE8C1000E22A0
:1050E000002105E014230E22009501950021029570
:1050F000322000F0C3F8FEBD96FBF7F12078627B0A
:105100008DE807000C23092202212C2000F03EF933
:10511000CEE796FBF7F007FB106048B100950195CC
:105120000C23029509220221362000F02FF9FEBD42
:10513000009501950C23092202212C20029500F0F4
:1051400025F9EBE7C402002000000020FEB51F2275
:1051500080B3002060F3070160F30F2162F3174171
:10516000CEB2C1F30745C1F30724142300963D22B4
:1051700019463920CDE90145FEF752F8152300966E
:105180003D2219463920CDE90145FEF749F816239D
:1051900000963D2219463920CDE90145FEF740F839
:1051A000172300963D2219463920CDE90145FEF727
:1051B00037F8FEBDFFE762F3070162F30F21CDE789
:1051C000FEB51F2262F3070118B3002060F30F2120
:1051D00060F31741C1F30746C1F30724CDB223465C
:1051E0002A4610213B20009600F070FFCDE90054C4
:1051F00011233C2219463A200296FEF711F8CDE918
:10520000005412233D22194639200296FEF708F871
:10521000FEBD62F30F2162F31741DBE7FEB51F22EB
:1052200028B3002060F3070162F30F2160F31741F8
:10523000CEB2C1F30744C1F307250096CDE901546E
:1052400019233D2219463920FDF7EAFF0096CDE9E2
:1052500001541A233C2219463A20FDF7E1FF2B4660
:1052600032461B213B20009400F030FFFEBD62F36C
:10527000070162F30F2162F31741D9E72DE9F84FD7
:1052800088460446DFF8F8A0871817E008EB03010A
:1052900055460FE005EB8116321812F840CC06F89F
:1052A00000C092F8C06782F8006892F8C06F02F5FB
:1052B00080521670491E4145ECDC401C8742E5DCFB
:1052C0000A984FF0000BA0F51C510F3904D0DFF8FD
:1052D000B490002625464CE058460AEB881107E0BA
:1052E0000A19085582F8000802F58052641C1070F3
:1052F000A742F5DCBDE8F88F99F8030020280B9849
:10530000C2B2A5EB040009D20C9B0A9900F066FE1C
:1053100000EB400101EB0900815D1DE000900C9B5A
:105320000A9900F05BFEE8B199F803001649C0F154
:10533000FF00C0EB0010C0EBC00001EBC000C6EBEB
:10534000C60101EB810100EBC1010A98C0EBC0006E
:1053500001EB40010098095C0AEBC62202EB8810C1
:10536000415505E00AEBC62202EB881101F805B0B1
:105370006D1CAF42C0DC761C032EABDBBAE700002D
:105380006E0500205C000020539E00082DE9F04FC0
:105390000D4680462849861816E0EA1810E000BF3E
:1053A00001EB82173C1814F840CC07F800C094F8C1
:1053B000C07784F8007894F8C07F04F58054277093
:1053C000521EAA42ECDC401C8642E6DC0998A0F59D
:1053D0001C520F3A09D0DFF864A000278B460BEB74
:1053E000C720444600EB851920E04046002201EB2F
:1053F000851107E00B180A5483F8002803F5805341
:10540000401C1A708642F5DCBDE8F08F0A980B9BB1
:10541000C2B2A4EB0800099900F002FE00EB4001C3
:1054200001EB0A00C15D09F80410641CA642EDDC22
:105430007F1C032FD3DBE7E76E0500205C00002014
:105440003EB50A4C4FF47A7012210094CDE9011058
:1054500001230022D021A4F59670FBF7E3FDFBF7B2
:10546000A5F90349607C88743EBD0000DC02002081
:105470000000002010B51B4CE079002831D0A07846
:1054800000282ED1FBF728FDE1690A38884228D987
:10549000FFF724FD6079217A801E40B2607100F030
:1054A000A1FB94F9050010F1140F17DA94F9080024
:1054B000022806D0401CC1B2A079801E40B2A07163
:1054C00004E0A0790021801E40B2A07100F08AFBA8
:1054D00094F90600022801DA0020E071FBF7FCFCD9
:1054E000E06110BD000000201CB5FBF773FFFEF764
:1054F0000CF8FDF729F9FDF7A5F9FDF7FDF9FDF722
:1055000085F9FDF7CFF9FBF781FA00250024204645
:10551000FBF728FB01462046FDF780FF641C062CA4
:10552000F5DB6D1C062DF1DB0C219748FCF724FD03
:1055300095488030FCF71CFBFBF78EFB924909680D
:105540000864FFF77DFF9148009000F12705A5F161
:105550002803AA7969792879FEF7A0FC1020FDF7C5
:1055600025FAFBF7B9FCA5F138040121606320633B
:10557000E062A0626062A07800F00AF9A0780228D8
:1055800003D10121032000F003F94FF4C8794FF053
:10559000000800BFFFF73AF9FDF744F8FBF79CFC61
:1055A000616A401A484504D9FFF74AFFFBF794FCAB
:1055B0006062FBF791FCA16A401A962805D9A07891
:1055C00000F0C2FCFBF788FCA062FFF753FF2878CD
:1055D000E17B88423CD0E073A07820B1012833D031
:1055E00002283AD034E04646CDF8008000233C2221
:1055F0001F210120CDF80480FDF7F6FD6248C03080
:10560000027AC179CDE9001283792A781F2101201D
:10561000FDF7EAFD28780522B0FBF2F102FB11014B
:1056200059B90121E17166713F21A171217A491CAB
:1056300049B22172032900D1267248B900210846D7
:1056400000F0A6F817200DE00121084600F0A0F8B0
:10565000207868B3A07838B119E00021032000F069
:1056600097F80E202070F5E7FBF736FCE16A401A48
:105670003C280CD968780A21B0FBF1F201FB12003A
:1056800000226178FFF7F8FCFBF726FCE062A078C7
:10569000022813D1FBF720FCE16A401A142807D92D
:1056A000287802226178FFF7E7FCFBF715FCE0623F
:1056B000A078022802D1012100F06AF8E07821796F
:1056C000084321D0FBF708FCA169401A40F6B83125
:1056D000884219D9E07838B184F80380FBF7BCFA26
:1056E00001462A20FBF744FA207968B1264F84F856
:1056F0000480C0370726B81910F8071C3046FBF79E
:1057000037FA761C1F2EF6DBA978E07A814206D1A3
:10571000697821B929780A2901D2012007E00628F1
:1057200007D1687828B928780A2802D26420FDF7C2
:1057300081FE207B00283FF42DAFFBF7CDFB616B92
:10574000401A49F6404188427FF624AFFDF7AAF996
:1057500084F80080A0784146401CC0B2A0700328A5
:1057600000D1A1700121A07800F012F8A0780228E1
:1057700006D10121032000F00BF80020FBF77AFA94
:10578000FBF7AAFB606305E704020020110000207C
:105790002DE9F041DF4C88460300DF4E2078617828
:1057A000A27898B04FF00A05A6F1380763D0012B14
:1057B0007ED0022B7DD0032B7CD1FDF749FEB07843
:1057C0007B7BB0FBF5F202210020FDF75FFBB07898
:1057D0007B7BB0FBF5F105FB110202210A20FDF7EE
:1057E00055FBE27AA17A607AFDF732FE00230A22A5
:1057F00002211320FDF74AFB62792179E078FDF759
:1058000027FE70787B7BB0FBF5F202211620FDF7B6
:105810003DFB70787B7BB0FBF5F105FB11020221AB
:105820002020FDF733FBE27AA17A607AFDF710FEC3
:1058300000230A2202212920FDF728FBB8F1000FDE
:1058400038D0227AE179E078FDF702FE30787B7B70
:10585000B0FBF5F202212C20FDF718FB30787B7BA2
:10586000B0FBF5F105FB110218B00221BDE8F041D3
:105870003620FDF70BBBFDF7EBFDB0780021B0FB48
:10588000F5F27B780846FDF79BFAB0787B78B0FBA1
:10589000F5F105FB110200210E20FDF791FA627966
:1058A0002179E078FDF7D4FD7078B0FBF5F202E0E5
:1058B0001AE022E11EE17B7800212420FDF780FA26
:1058C000B8F1000F09D070787B78B0FBF5F105FBDB
:1058D000110200213220FDF773FA18B00021BDE853
:1058E000F041084600F07EB9FBF784F83278717811
:1058F000B078884BFAF77CFF00212020FDF7CCF828
:1059000086A1D1E90001CDE911013079B0FBF5F1B3
:10591000491C8DF84410B0FBF5F105FB1100401C4B
:105920008DF845007079B0FBF5F1491C8DF84710F2
:10593000B0FBF5F105FB1100401C8DF84800227BFF
:105940008DF80C20617B8DF80D10A07B8DF80E007A
:105950008DF810108DF80F208DF81100A0798DF8BA
:105960001200E0798DF81300207A8DF81400E07BA6
:105970008DF81500217C8DF81610627C8DF81800CA
:105980008DF819108DF817208DF81A2003A911A889
:10599000FDF7C0FA08212720FDF77EF8F1780129EC
:1059A00003D00D20491CC9B201E00F2010215DA2D7
:1059B000126817928DF85C008DF85E10617A8DF890
:1059C0001C10A27A8DF81D20E07A8DF820208DF829
:1059D00021008DF81E008DF822108DF81F108DF813
:1059E00024008DF8232007A917A8FDF793FA1021AA
:1059F0002420FDF751F84CA1D1E90001CDE91501B2
:105A0000B87CB0FBF5F1491C8DF85410B0FBF5F1F2
:105A100005FB1100401C8DF85500617D8DF80010CC
:105A2000A07D8DF80100E27D8DF804008DF808203E
:105A30008DF805208DF809108DF806108DF80220DC
:105A40008DF80A008DF803108DF807008DF80B20F3
:105A5000694615A8FDF75EFA18212020FDF71CF80D
:105A60002EA1D1E90001CDE91301387CB0FBF5F19D
:105A7000491C8DF84C10B0FBF5F105FB1100401CE2
:105A80008DF84D00787CB0FBF5F1491C8DF84F1076
:105A9000B0FBF5F105FB1100401C8DF85000217B97
:105AA0008DF82810607B8DF82900A27B8DF82A20C4
:105AB0008DF82C008DF82B108DF82D20A0798DF805
:105AC0002E00E0798DF82F00207A8DF83000E07BF1
:105AD0008DF83100217C8DF83210627C8DF8340015
